***DEBUT***
0005517010715300616J0821006005218GQEUR
01    MARTY Eliane              MARTY Eliane                    
02216  rue de la Convention Café "LE BALTO"                       75015 PARIS                      
0345196996800010    01.48.28.24.04        N1200000000NN09G10                    NN  
04            12        0000000000000000000
05aaÀ NOUVEAUX          0000000000 ONN 00000                OM
05acACHATS              4456600000 ONN 00000                OM
05acACHATS              0000000000 ONN 00000                OM
05anA nouveaux          0000000000 ONN 00000                OM
05anA NOUVEAUX          0000000000 ONN 00000                OM
05b1CREDIT LYON.MR MARTY5120020000 TNN 00000                OM
05b2BANQUE LOTO         5120100000 TNN 00000                OM
05b3CREDIT LYON.MME MART5120020000 TNN 00000                OM
05baBALANCE             0000000000 ONN 00000                OM
05bnBNP PARIBAS         5120000000 TNN 00000                OM
05bpBANQUE POPULAIRE    5121000000 TNN 00000                OM
05c1CAISSE BAR TABAC    5300000000 ONN 00000                OM
05c2CAISSE LOTO         5301000000 ONN 00000                OM
05caCREDIT AGRICOLE     5120000000 TNN 00000                OM
05caCAISSE              0000000000 TNN 00000                OM
05ceCaisse Epargne      0000000000 TNN 00000                OM
05ciCIC                 5120100000 TNN 00000                OM
05clCLOTURE             0000000000 ONN 00000                OM
05cmCREDIT MUTUEL       0000000000 TNN 00000                OM
05cnCREDIT  DU NORD     5120010000 TNN 00000                OM
05lcCREDIT LYONNAIS     5120000000 TNN 00000300020000075255FOM
05odOPERAT.DIVERSES     0000000000 ONN 00000                OM
05paPAIES               0000000000 ONN 00000                OM
05rbReprise balance     0000000000 ONN 00000                OM
05saSALAIRES            0000000000 ONN 00000                OM
05sgSOCIETE GENERALE    5120000000 TNN 00000                OM
05siSituation           0000000000 ONN 00000                OM
05siSITUATION           0000000000 ONN 00000                OM
05vtVentes              0000000000 ONN 00000                OM
05vtVENTES              0000000000 ONN 00000                OM
0700000000000000000 
0710196000000000000 
0720055000000000000 
C0000000000                         OLA00000000090103000000000901030000 
C0000010000SEITA                    OLA00000011281983000000183333900000 
C0000080000SAF                      OLA00000000000000000000000000000000 
C0000090000CAFE LADOUX              OLA00000000000000000000000000000000 
C0000100000FID'ESS                  OLA00000000360196000000004293160000 
C0000130000FOURNISSEURS SEITA       OLA00000006651508000000066515080000 
C0000160000CFRT                     OLA00000000000000000000000000000000 
C0000200000CRAILCO                  OLA00000000000000000000000000000000 
C0000270000DUPONT                   OLA00000000000000000000000000000000 
C0001100000NOOS                     OLA00000000000000000000000000000000 
C0002000000YVAS                     OLA00000000000000000000000000000000 
C0003000000FOURN DIVERS             OLA00000000737506000000007375060000 
CFATTEN    Fournisseur Attente      MLA00000000000000000000000000000000 
C0EDF      EDF                      OLA00000000000000000000000000000000 
C0MORIN    MORIN SERVICES           OLA00000000200000000000002000000000 
C1010000000CAPITAL INDIVI. OU SOCIALMLG00000000000000000000000000000000 
C1013000000CAPITAL APPELE VERSE     MLG00000000000000000000000000000000 
C1061100000RESERVE LEGALE PROP.DITE MLG00000000000000000000000000000000 
C1063000000RESERVE STATUT.OU CONTRA.MLG00000000000000000000000000000000 
C1064100000RESERVE PLUS VALUE L.T.  MLG00000000000000000000000000000000 
C1080000000COMPTE DE L'EXPLOITANT   MLG00000041652816000000814783870000 
C1100000000REPORT A NOUVEAU         MLG00000000000000000000000000000000 
C1200000000COMPTE DE RESULTAT       MLG00000014049405000000140494050000 
C1280000000Résultat                 MLG00000000000000000000000000000000 
C1290000000Résultat                 MLG00000000000000000000000000000000 
C1310000000SUBVENTIONS D'EQUIPEMENT MLG00000000000000000000000000000000 
C1390000000SUBVENTIONS INSCR.A RESULMLG00000000000000000000000000000000 
C1450000000AMORTISSEMENT DEROGATOIREMLG00000000000000000000000000000000 
C1510000000PROVISIONS POUR RISQUES  MLG00000000000000000000000000000000 
C1550000000PROV.POUR IMPOTS         MLG00000000000000000000000000000000 
C1582000000P.S/CH.SOC&FISC.CONG.PAYEMLG00000000000000000000000000000000 
C1641000000EMPRUNT ETABLI.CREDIT    MLG00000000000000000000000000000000 
C1648100000EMPRUNT 1 BANQUE 1       MLG00000000000000000000000000000000 
C1648110000EMPRUNT 1 BANQUE 2       MLG00000000000000000000000000000000 
C1648120000EMPRUNT 1 BANQUE 3       MLG00000000000000000000000000000000 
C1648200000EMPRUNT 2 BANQUE 1       MLG00000000000000000000000000000000 
C1648210000EMPRUNT 2 BANQUE 2       MLG00000000000000000000000000000000 
C1648220000EMPRUNT 2 BANQUE 3       MLG00000000000000000000000000000000 
C1648300000EMPRUNT 3 BANQUE 1       MLG00000000000000000000000000000000 
C1648310000EMPRUNT 3 BANQUE 2       MLG00000000000000000000000000000000 
C1648320000EMPRUNT 3 BANQUE 3       MLG00000000000000000000000000000000 
C1648400000EMPRUNT 4 BANQUE 1       MLG00000000000000000000000000000000 
C1648410000EMPRUNT 4 BANQUE 2       MLG00000000000000000000000000000000 
C1648420000EMPRUNT 4 BANQUE 3       MLG00000000000000000000000000000000 
C1648500000EMPRUNT 5 BANQUE 1       MLG00000000000000000000000000000000 
C1648510000EMPRUNT 5 BANQUE 2       MLG00000000000000000000000000000000 
C1648520000EMPRUNT 5 BANQUE 3       MLG00000000000000000000000000000000 
C1680110000DETTES SEITA CREDIT STOCKMLG00000000000000000000000000000000 
C1680200000DETTES CREDIT RATP       MLG00000000000000000000006694000000 
C1680600000DETTES CREDIT TIMBRES FISMLG00000000000000000000000000000000 
C1687100000AUTRES DETTES            MLG00000000000000000000000000000000 
C180000000058                       MLG00000000000000000000000000000000 
C2010000000FRAIS D'ETABLISSEMENT    MLG00000000000000000000000000000000 
C2011000000FRAIS DE CONSTITUTION    MLG00000000000000000000000000000000 
C2012000000FRAIS 1ER ETABLISSEMENT  MLG00000000000000000000000000000000 
C2013000000FRAIS D'AUGMENT. CAPITAL MLG00000000000000000000000000000000 
C2030000000FRAIS RECHERCHE & DEVEL  MLG00000000000000000000000000000000 
C2050000000CONCESS. BREVETS LICENCE MLG00000000000000000000000000000000 
C2060000000DROIT AU BAIL            MLG00000000000000000000000000000000 
C2070000000FOND COMM & DROIT AU BAILMLG00000007470002000000000000000000 
C2080000000LOGICIELS                MLG00000000032548000000000000000000 
C2110000000TERRAINS                 MLG00000000000000000000000000000000 
C2131000000CONSTRUCT.BATIMENTS      MLG00000000000000000000000000000000 
C2135000000INST.AGENC.CONSTRUCT.    MLG00000000000000000000000000000000 
C2140000000CONSTR. S/SOL D'AUTRUI   MLG00000000000000000000000000000000 
C2141000000CONSTR. S/SOL D'AUTRUI   MLG00000000000000000000000000000000 
C2145000000AGENC.CONST.SOL AUTRUI   MLG00000000000000000000000000000000 
C2150000000MATERIEL ET OUTILLAGE    MLG00000000000000000000000000000000 
C2154000000MATERIEL INDUSTRIEL      MLG00000002361903000000006482740000 
C2180300000MATERIEL DE BUREAU       MLG00000000000000000000000000000000 
C2181000000INSTAL./AGENCC.DIVERS    MLG00000008112489000000000000000000 
C2182000000MATERIEL DE TRANSPORT    MLG00000000000000000000000000000000 
C2183000000MAT.BUREAU &INFORMATIQUE MLG00000000448874000000000000000000 
C2184000000MOBILIER                 MLG00000001604806000000000000000000 
C2186000000EMBALLAGES RECUPERABLES  MLG00000000000000000000000000000000 
C2310000000IMMOBILISATIONS EN COURS MLG00000000000000000000000000000000 
C2370000000AVANCES S/IMMO INCORPORELMLG00000000000000000000000000000000 
C2380000000AVANCES S/IMMO CORPORELLEMLG00000000000000000000000000000000 
C2610000000TITRES DE PARTICIPATION  MLG00000000000000000000000000000000 
C2671700000CREANCES P.GROUPE (+1 AN)MLG00000000000000000000000000000000 
C2671800000CREANCES P.GROUPE (-1 AN)MLG00000000000000000000000000000000 
C2674700000CREANCES PART HS GR.(+1A)MLG00000000000000000000000000000000 
C2674800000CREANCES PART HS GR.(-1A)MLG00000000000000000000000000000000 
C2678000000INT.COURUS S/CREANCE PA  MLG00000000000000000000000000000000 
C2697000000VERS.A EFFECT./TITRES+1  MLG00000000000000000000000000000000 
C2698000000VERS.A EFFECT./TITRES-1  MLG00000000000000000000000000000000 
C2710000000AUTRES TITRES IMMOBILIS  MLG00000000000000000000000000000000 
C2740000000PRETS                    MLG00000000000000000000000000000000 
C2741000000PRETS PARTICIPATIFS      MLG00000000000000000000000000000000 
C2743700000PRETS AU PERSONNEL (+1AN)MLG00000000000000000000000000000000 
C2743800000PRETS AU PERSONNEL (-1AN)MLG00000000000000000000000000000000 
C2748700000AUTRES PRETS (+ 1 AN)    MLG00000000000000000000000000000000 
C2748800000AUTRES PRETS (- 1 AN)    MLG00000000000000000000000000000000 
C2750000000DEPOTS & CAUTIONNEMENTS  MLG00000000753665000000000000000000 
C2768000000INT.COUR.S/AUTRES IMMO   MLG00000000000000000000000000000000 
C2801000000AMORT.FRAIS ETABLISSEMENTMLG00000000000000000000000000000000 
C2803000000AMORT.FRAIS RECHER.&DEV. MLG00000000000000000000000000000000 
C2805000000AMORT.CONC.BREVETS LICEN.MLG00000000000000000000000000000000 
C2807000000AMORT.FONDS COMMERCIAL   MLG00000000000000000000000000000000 
C2808000000AMORT.LOGICIELS          MLG00000000000000000000000325480000 
C2813100000AMORT.CONSTRUCTION       MLG00000000000000000000000000000000 
C2813500000AMORT.AGENC.CONSTRUCT.   MLG00000000000000000000000000000000 
C2814100000AMORT.CONS.SOL AUTRUI    MLG00000000000000000000000000000000 
C2814500000AMORT.AG.CONS.SOL AUTRUI MLG00000000000000000000000000000000 
C2815000000AMORT.MATERIEL&OUTILLAGE MLG00000000000000000000000000000000 
C2815400000AMORT.MATERIEL INDUSTRIELMLG00000000648274000000020962670000 
C2818100000AMORT.AG.CONS.DIVERSES   MLG00000000000000000000075004500000 
C2818200000AMORT.MATERIEL DE TRANSP.MLG00000000000000000000000000000000 
C2818300000AMORT.MAT.BUREAU &INFOR. MLG00000000000000000000004332050000 
C2818400000AMORT. MOBILIER          MLG00000000000000000000014700290000 
C2818600000AMORT.EMBALLAGES RECUP.  MLG00000000000000000000000000000000 
C2905000000PROV.DEPRE.MARQUES,PROCE.MLG00000000000000000000000000000000 
C2906000000PROV.DEPRE.DROIT AU BAIL MLG00000000000000000000000000000000 
C2907000000PROV.DEPRE.FONDS COMMERC.MLG00000000000000000000000000000000 
C2908000000PROV.DEPRE.AUTR.IMMO.INC.MLG00000000000000000000000000000000 
C2910000000PROV.DEPRE.IMMO.CORP.    MLG00000000000000000000000000000000 
C2930000000PROV.DEPRE.IMMO.CORP.EN CMLG00000000000000000000000000000000 
C2961000000PROV.DEPR.TITRES PARTICI.MLG00000000000000000000000000000000 
C2967000000PROV.DEPR.CREANCES PARTI.MLG00000000000000000000000000000000 
C2971000000PROV.DEP.AUTRES TIT.IMM. MLG00000000000000000000000000000000 
C2974300000PROV.DEPR.PRETS PERSONNELMLG00000000000000000000000000000000 
C2974800000PROV.DEPR.PRETS DIVERS   MLG00000000000000000000000000000000 
C2975000000PROV.DEPR.DEPOT.CAUTION  MLG00000000000000000000000000000000 
C2976000000PROV.DEPRAUTR.CREANC.IMM.MLG00000000000000000000000000000000 
C3100000000MATIERES PREMIERES       MLG00000000000000000000000000000000 
C3200000000AUTRES APPROVISIONNEMENT MLG00000000000000000000000000000000 
C3300000000EN COURS PRODUCT.BIENS   MLG00000000000000000000000000000000 
C3400000000EN COURS PRODUCT.SERVICESMLG00000000000000000000000000000000 
C3500000000STOCKS DE PRODUITS       MLG00000000000000000000000000000000 
C3700000000STOCKS DE MARCHANDISES   MLG00000000000000000000000000000000 
C3701000000STOCK BAR                MLG00000000922331000000005166960000 
C3702000000STOCK TABLETTERIE        MLG00000000936572000000004866840000 
C3703000000STOCK TELECARTES         MLG00000000000000000000000000000000 
C3703100000STOCK TICKETS+MOBICARTES MLG00000000000000000000000000000000 
C3703200000STOCK AUTRES CARTES      MLG00000000300650000000001946500000 
C3910000000PROV.DEP.MAT.PREMIERES   MLG00000000000000000000000000000000 
C3920000000PROV.DEP.AUTRES APPROVIS.MLG00000000000000000000000000000000 
C3930000000PROV.DEP.EN COURS BIENS  MLG00000000000000000000000000000000 
C3940000000PROV.DEP.EN COURS SERVICEMLG00000000000000000000000000000000 
C3950000000PROV.DEP.STOCKS PRODUITS MLG00000000000000000000000000000000 
C3970000000PROV.DEP.MARCHANDISES    MLG00000000000000000000000000000000 
C4010000000COLLECTIF FOURNISSEURS   MLG00000000000000000000071205270000 
C4040000000FOURNISSEUR IMMOBILISAT. MLG00000000000000000000000000000000 
C4041000000FOURNISSEURS D'IMMOB.    MLG00000000000000000000000000000000 
C4041700000FOURNISSEURS IMMO.       MLG00000000000000000000000000000000 
C4081000000FOURNIS.FACT.NON PARVENUEMLG00000000252000000000005040000000 
C4084000000FOURN.IMMO.FACT.NON.PARV.MLG00000000000000000000000000000000 
C4091000000FOURN.ACPTES S/COMMANDES MLG00000000210300000000000775000000 
C4097000000FRS AUTRES AVOIRS        MLG00000000000000000000000000000000 
C4098000000FOURNIS.RRR A OBTENIR    MLG00000000000000000000000000000000 
C4110000000COLLECTIF CLIENTS        MLG00000000000000000000000000000000 
C4119990000Collectif client divers  MLG00000000000000000000000000000000 
C4121000000RECETTES TABAC           MLG00000179160372000001791603720000 
C4160000000CLIENTS DOUTEUX OU LITIGEMLG00000000000000000000000000000000 
C4181000000CLIENTS FACT. A ETABLIR  MLG00000000000000000000000000000000 
C4191000000CLIENTS ACPTES S/COMMANDEMLG00000000000000000000000000000000 
C4197000000CLIENTS AUTRES AVOIRS    MLG00000000000000000000000000000000 
C4198000000CLIENTS RRR&AV.A ACCORD. MLG00000000000000000000000000000000 
C4210000000PERS.REMUNERATIONS DUES  MLG00000002897571000000030653780000 
C4212050000BARSOUKOVA-SAADI IOULIANAMLG00000000000000000000000000000000 
C4213000000GURNEL CHARLES           MLG00000000000000000000000000000000 
C4216500000LENAMOUR JEANINE         MLG00000000000000000000000000000000 
C4217000000PORIER GABRIEL           MLG00000000000000000000000000000000 
C4217200000MEZNAD MALIK             MLG00000000000000000000000000000000 
CSATTEN    Salarié attente          MLG00000000000000000000000000000000 
C4219990000Collectif salarié divers MLG00000000000000000000000000000000 
C4250000000AVANCE ACPTE AU PERSONNELMLG00000000000000000000000000000000 
C4270000000OPPOSITIONS              MLG00000000000000000000000000000000 
C4282000000CONGES A PAYER           MLG00000000172000000000004310000000 
C4286000000AUTRES CHARG.PERS.A PAYERMLG00000000000000000000000000000000 
C4287000000PERSONNEL PROD.A RECEVOIRMLG00000000000000000000000000000000 
C4310000000URSSAF                   MLG00000001584400000000021107000000 
C4371000000CAISSE RETRAITE CADRES   MLG00000000000000000000000000000000 
C4372000000CAISSE RETRAITE SALARIES MLG00000000467038000000005796380000 
C4373000000ASSEDIC                  MLG00000000000000000000000000000000 
C4374000000CONGES PAYES             MLG00000000000000000000000000000000 
C4378000000AUTRES CAISSES           MLG00000000027200000000000556000000 
C4382000000ORG.SOC. CH/CONGES A PAY.MLG00000000068800000000001594000000 
C4386000000ORG.SOCIAUX AUTRES CH.PAYMLG00000000000000000000000000000000 
C4387000000ORGANISMES SOC.PROD.A RECMLG00000000000000000000000000000000 
C4410000000ETAT SUBVENTIONS A RECEV.MLG00000000000000000000000000000000 
C4440000000ETAT IMPOTS S/BENEFICES  MLG00000000000000000000000000000000 
C4441500000CICE - Crédit impot comptMLG00000000000000000000000000000000 
C4455100000TVA A DECAISSER          MLG00000001604200000000029524000000 
C4455800000TAXES ASSIM.TVA A DECAIS.MLG00000000022700000000000227000000 
C4456200000TVA DEDUCT.S/IMMO.       MLG00000000039000000000000390000000 
C4456600000TVA DEDUCT.S/ACHATS & F.GMLG00000000957607000000009460260000 
C4456800000CREDIT DE TVA A REPORTER MLG00000000474600000000004746000000 
C4457100000TVA COLLECTEE            MLG00000004305200000000043052000000 
C4458100000ACOMPTES TVA REEL SIMPLIFMLG00000001060600000000010606000000 
C4458600000TVA S/FACT.NON PARVENUES MLG00000000084000000000000420000000 
C4458700000TVA S/FACT.A ETABLIR     MLG00000000000000000000000000000000 
C4470000000AUTRES IMPOTS TAXES &VERSMLG00000000000000000000000000000000 
C4482000000ETAT CH.SOC./CONGES A PAYMLG00000000000000000000000000000000 
C4486000000ETAT CHARGES A PAYER     MLG00000000072400000000001478000000 
C4487000000ETAT PRODUITS A RECEVOIR MLG00000000000000000000000000000000 
C4551700000ASSOCIES CPTE COURANTS   MLG00000000000000000000000000000000 
C4558000000ASSOCIES INTERETS COURUS MLG00000000000000000000000000000000 
C4627000000CREANCE CESSION IMMO     MLG00000000000000000000000000000000 
C4670000000DEBITEURS CREDIT.DIVERS  MLG00000000000000000000000000000000 
C4670050000SAADA HENSA TOBACCO      MLG00000000000000000000000000000000 
C4670100000SEITA TABAC              MLG00000160689485000001474939260000 
C4670150000UNITED STARS ASSOCIATION MLG00000000000000000000000000000000 
C4670200000RATP BILLETS             MLG00000005060865000000048402000000 
C4670300000PTT TIMBRES              MLG00000001195428000000011301480000 
C4670400000PMU                      MLG00000000000000000000000000000000 
C4670500000LOTO NATIONAL BQ1        MLG00000016320540000000154255400000 
C4670600000TIMBRES FISCAUX          MLG00000000464550000000004645500000 
C4670700000LOTO NATIONAL BQ2        MLG00000030047756000000300477560000 
C4670800000VIGNETTES                MLG00000000000000000000000000000000 
C4670900000GREATLAND-FRANCE TABAC   MLG00000000000000000000000000000000 
C4670950000SEITA CARTES PARKING     MLG00000002490000000000024900000000 
C4686000000DEBIT.CRED.DIV.CHAR.A PAYMLG00000000400000000000004000000000 
C4687000000DEBIT.CRED.DIV.PROD.A RECMLG00000000407629000000001889470000 
C4710000000COMPTE D'ATTENTE         MLG00000000000000000000000000000000 
C4710090000COMPTE ATTENTE INFORMATIQMLG00000000000000000000000000000000 
C4718990000Solde bordereau (récup)  MLG00000000000000000000000000000000 
C4718990100Divers attente           MLG00000000000000000000000000000000 
C4719990000Collectif divers         MLG00000000000000000000000000000000 
C4720000000COMPTE D'ATTENTE         MLG00000003954219000000039542190000 
C4811000000CHARGES DIFFEREES        MLG00000000000000000000000000000000 
C4860000000CHARGES CONSTAT.D'AVANCE MLG00000001880100000000009739000000 
C4870000000PROD.CONSTATES D'AVANCE  MLG00000000000000000000000000000000 
C4910000000PROV.DEPRE.CLIENTS       MLG00000000000000000000000000000000 
C50000000003                        MLG00000000000000000000000000000000 
C5112000000CHEQUES A ENCAISSER      MLG00000000000000000000000000000000 
C5112100000CHEQUES IMPAYES          MLG00000000000000000000000000000000 
C5120000000CREDIT LYONNAIS  MR MARTYMLG00000000000000000000000000000000 
C5120010000BANQUE 2                 MLG00000000000000000000000000000000 
C5120020000CREDIT LYON.MME MARTY    MLG00000061647994000000417642880000 
C5120100000BANQUES LOTO             MLG00000007293367000000009856880000 
C5121050000C A T Bq Loto National FDMLG00000122607340000001123588700000 
C5140000000CHEQUES POSTAUX          MLG00000000000000000000000000000000 
C5186000000BANQUES INTERETS COURUS  MLG00000000000000000000000000000000 
C5187000000BANQUES PROD. A RECEVOIR MLG00000000000000000000000000000000 
C5300000000CAISSE                   MLG00000151320380000001501212990000 
C5301000000CAISSE LOTO              MLG00000000000000000000000000000000 
C5800000000VIREMENTS INTERNES       MLG00000014288650000000142886500000 
C5805000000VIREMENTS INTERNES LOTO  MLG00000029992500000000299925000000 
C5805100000VIREMENTS INTERNES       MLG00000134104550000001341045500000 
C5850000000VIREMENTS INTERNES       MLG00000000000000000000000000000000 
C5900000000PROV.DEPRE.VAL.MOB.PLACT MLG00000000000000000000000000000000 
C6010010000ACHATS MATIERES 1 ERE HT2MLG00000000000000000000000000000000 
C6010020000ACHATS MATIERES 1ERE HT 3MLG00000000000000000000000000000000 
C6011010000ACHATS MATIERES A HT 2   MLG00000000000000000000000000000000 
C6011020000ACHATS MATIERES A HT 3   MLG00000000000000000000000000000000 
C6012010000ACHATS MATIERES B HT 2   MLG00000000000000000000000000000000 
C6012020000ACHATS MATIERES B HT 3   MLG00000000000000000000000000000000 
C6026000000ACHATS D'EMBALLAGES      MLG00000000443905000000004382380000 
C6031000000VARIAT.STOCKS MAT.PREM.  MLG00000000000000000000000000000000 
C6032000000VARIAT.STOCKS AUTRES APPRMLG00000000000000000000000000000000 
C6037000000VARIAT.STOCK MARCHANDISE MLG00000000000000000000000000000000 
C6037100000VARIAT.STOCK BAR         MLG00000000516696000000004056350000 
C6037200000VARIAT.STOCK TABLETTERIE MLG00000000486684000000004498880000 
C6037300000VARIAT.STOCK TELECARTES  MLG00000000000000000000000000000000 
C6037310000VAR.STOCK TICKETS+MOBICARMLG00000000000000000000000000000000 
C6037320000VARIAT.STOCK AUTRES CARTEMLG00000000194650000000001060000000 
C6040000000ACHATS D'ETUDES &PREST.  MLG00000000000000000000000000000000 
C6050000000ACH.MATERIEL ET TRAVAUX  MLG00000000000000000000000000000000 
C6060370000607300                   MLG00000000000000000000000000000000 
C6061100000FOURN.NON STOCK.(ELECT.) MLG00000000472216000000000633710000 
C6061200000FOURN.NON STOCK.(EAU)    MLG00000000032096000000000000000000 
C6061300000FOURN.NON STOCK.(GAZ)    MLG00000000051258000000000000000000 
C6061350000FOURN.NON ST.AIR LIQUIDE MLG00000000000000000000000000000000 
C6061400000FOURN.NON STOCK.(CARB.LUBMLG00000000000000000000000000000000 
C6061500000FOURN.NON STOCK.(COMB.CHAMLG00000000000000000000000000000000 
C6063000000FOURN.ENTRET.&PETIT EQUIPMLG00000000054044000000000000000000 
C6063100000ACHATS PRODUITS D'ENTRET.MLG00000000060709000000000000000000 
C6064000000FOURNIT.ADMINISTRATIVES  MLG00000000088157000000000000000000 
C6070000000ACHATS DE MARCHANDISES   MLG00000000026483000000000264830000 
C6070010000ACHATS MARCHANDISES HT 2 MLG00000000000000000000000000000000 
C6070020000ACHATS MARCHANDISES HT 3 MLG00000000000000000000000000000000 
C6071000000ACHATS LIQUIDES 20 %     MLG00000001849517000000000044240000 
C6071010000ACHATS MARCHANDISES A HT2MLG00000000000000000000000000000000 
C6071020000ACHATS MARCHANDISES A HT3MLG00000000000000000000000000000000 
C6071050000ACHATS DE LIQUIDES 10 %  MLG00000000295031000000000277200000 
C6071150000ACHATS 10 %  CAFES       MLG00000001256765000000001716400000 
C6072000000ACHATS BOULANGERIE       MLG00000000303715000000003037150000 
C6072010000ACHATS MARCHANDISES B HT2MLG00000000000000000000000000000000 
C6072020000ACHATS MARCHANDISES B HT3MLG00000000000000000000000000000000 
C6072100000ACHATS 5% LAITERIES      MLG00000000050542000000000505420000 
C6073000000ACHATS TABLETTERIES      MLG00000000466808000000000000000000 
C6073050000ACHAT TELECARTES 25 U    MLG00000000000000000000000000000000 
C6073100000ACHATS TELECARTES 50 U   MLG00000000000000000000000000000000 
C6073200000ACHATS TELECARTES 120 U  MLG00000000000000000000000000000000 
C6073210000E-RECHARGE               MLG00000000000000000000000000000000 
C6073300000ACHATS MOBICARTE         MLG00000000000000000000000000000000 
C6073400000ACHATS CALL POINT        MLG00000000000000000000000000000000 
C6073500000ACHATS CARTES TELEPHONE  MLG00000004988883000000001249260000 
C6073510000Achats cartes Tel / CommiMLG00000000000000000000000000000000 
C6073550000ACHATS CARTES SFR        MLG00000000000000000000000000000000 
C6073560000ACHATS MAXIMINUTE 100    MLG00000000000000000000000000000000 
C6073600000ACHATS CARTES KOSMOS     MLG00000000000000000000000000000000 
C6073610000CARTES MAGHREB 50F       MLG00000000000000000000000000000000 
C6073650000ACHATS TICKETS UNIV 100  MLG00000000000000000000000000000000 
C6073660000TICKETS  EASY            MLG00000000000000000000000000000000 
C6073700000ACHATS CARTES CHAPEL - BOMLG00000000000000000000000000000000 
C6073710000PARIS CARTE 100          MLG00000000000000000000000000000000 
C6073720000PARIS CARTE 200          MLG00000000000000000000000000000000 
C6073730000PARIS CARTE 250          MLG00000000000000000000000000000000 
C6073740000PARIS CARTE 300          MLG00000000000000000000000000000000 
C6090000000R.R.R.O. SUR ACHATS      MLG00000000000000000000000000000000 
C6110000000SOUS TRAITANCE GENERALE  MLG00000000000000000000000000000000 
C6111000000TRAITEMENT INFORMATIQUE  MLG00000000000000000000000000000000 
C6122000000CREDIT BAIL MOBILIER 1   MLG00000000000000000000000000000000 
C6122010000CREDIT BAIL MOBILIER 2   MLG00000000000000000000000000000000 
C6122020000CREDIT BAIL MOBILIER 3   MLG00000000000000000000000000000000 
C6122030000CREDIT BAIL MOBILIER 4   MLG00000000000000000000000000000000 
C6122040000CREDIT BAIL MOBILIER 5   MLG00000000000000000000000000000000 
C6125000000CREDIT BAIL IMMOBILIER 1 MLG00000000000000000000000000000000 
C6125010000CREDIT BAIL IMMOBILIER 2 MLG00000000000000000000000000000000 
C6125020000CREDIT BAIL IMMOBILIER 3 MLG00000000000000000000000000000000 
C6132000000LOCATIONS IMMOBILIERES   MLG00000003570207000000011115000000 
C6135000000LOCATIONS MOBILIERES     MLG00000000000000000000000000000000 
C6152000000ENTRETIEN IMMOB.         MLG00000000000000000000000000000000 
C6155000000ENTRETIEN ET REPARATION  MLG00000000291000000000000000000000 
C6155100000ENTRETIEN MATERIEL       MLG00000000036029000000000000000000 
C6155200000ENTRETIEN MAT.TRANSPORT  MLG00000000000000000000000000000000 
C6155800000BLANCHISSERIE            MLG00000000024599000000000000000000 
C6156000000MAINTENANCE              MLG00000000000000000000000000000000 
C6160000000PRIMES D'ASSURANCES      MLG00000000256638000000000000000000 
C6160400000PRIMES ASS.DECES SEITA   MLG00000000000000000000000000000000 
C6180000000DOCUMENTATION            MLG00000000000000000000000000000000 
C6181000000DOCUMENTATION GENERALE   MLG00000000000000000000000000000000 
C6183000000DOCUMENTATION TECHNIQUE  MLG00000000000000000000000000000000 
C6185000000FORMATION-SEMINAIRES-CONFMLG00000000000000000000000000000000 
C6210000000PERSONNEL EXTE.A L'ENTREPMLG00000000000000000000000000000000 
C6222000000COMMIS&COURT.S/VENTES    MLG00000000000000000000000000000000 
C6226000000HONORAIRES               MLG00000001150100000000002100000000 
C6226100000HONORAIRES DIVERS        MLG00000000000000000000000000000000 
C6227000000FRAIS ACTES & CONTENTIEUXMLG00000000000000000000000000000000 
C6230000000PUBLICITE                MLG00000000000000000000000000000000 
C6231000000ANNONCES ET INSERTIONS   MLG00000000000000000000000000000000 
C6233000000FOIRES ET EXPOSITIONS    MLG00000000000000000000000000000000 
C6234000000CADEAUX A LA CLIENTELE   MLG00000000000000000000000000000000 
C6236000000CATALOGUES ET IMPRIMES   MLG00000000000000000000000000000000 
C6238000000POURBOIRES DONS COURANTS MLG00000000089000000000000000000000 
C6238100000DECORATION VITRINE       MLG00000000000000000000000000000000 
C6241000000TRANSPORTS S/ACHATS      MLG00000000000000000000000000000000 
C6242000000TRANSPORTS S/VENTES      MLG00000000000000000000000000000000 
C6248000000TRANSPORTS DIVERS        MLG00000000000000000000000000000000 
C6251000000VOYAGES ET DEPLACEMENTS  MLG00000000016680000000000000000000 
C6256000000MISSIONS                 MLG00000000000000000000000000000000 
C6257000000RECEPTIONS               MLG00000000000000000000000000000000 
C6260000000FRAIS POSTAUX & TELECOM. MLG00000000123046000000000000000000 
C6263000000TV  CABLE - INTERNET     MLG00000000029874000000000000000000 
C6272000000COMMISS.S/EMISSION EMPR. MLG00000000000000000000000000000000 
C6275000000SERVICES BANCAIRES       MLG00000000192479000000000000000000 
C6275100000Frais Loto national      MLG00000000000000000000000000000000 
C6281000000COTISATIONS              MLG00000000280596000000000572000000 
C6312000000TAXE APPRENTISSAGE       MLG00000000040700000000000137000000 
C6313000000PART.FORM.CONTINUE(TRESORMLG00000000033000000000000111000000 
C6334000000PARTICIP.EFFORT CONSTRUCTMLG00000000000000000000000000000000 
C6351100000C F E - Conytribution fonMLG00000000064700000000000210000000 
C6351200000TAXES FONCIERES          MLG00000000000000000000000000000000 
C6351400000TAXE S/VEHICULES SOCIETESMLG00000000000000000000000000000000 
C6351500000REDEVANCE AUDIOVISUELLE  MLG00000000080200000000000266000000 
C6353000000IMPOTS INDIRECTS         MLG00000000000000000000000000000000 
C6354000000DROITS D'ENREGIST.&TIMBREMLG00000000000000000000000000000000 
C6358000000AUTRES DROITS            MLG00000000000000000000000000000000 
C6371000000CONTRIB.SOCIALE SOLIDAR. MLG00000000000000000000000000000000 
C6378000000                         MLG00000000000000000000000000000000 
C6378500000VOIERIE ETAL.DEBIT BOISSOMLG00000000166440000000000370000000 
C6411000000SALAIRES APPOINT.COMMIS. MLG00000003729802000000000000000000 
C6411500000SALAIRES ADMINIS.&GERANTSMLG00000000000000000000000000000000 
C6412000000CONGES PAYES             MLG00000000259000000000001720000000 
C6413000000PRIMES ET GRATIFICATION  MLG00000000000000000000000000000000 
C6414000000INDEM.ET AVANTAGES DIVERSMLG00000000000000000000000000000000 
C6414100000AVTAGE NATURE REPAS-IND.NMLG00000000239712000000000000000000 
C6414150000INDEMNITE DE LICENCIEMENTMLG00000000000000000000000000000000 
C6414200000SERVICES                 MLG00000000000000000000000000000000 
C6415000000                         MLG00000000000000000000000000000000 
C6440000000REMUNER.TRAVAIL EXPLOITANMLG00000000000000000000000000000000 
C6450200000CHARGES SOC/PROV SOC.    MLG00000000090600000000000688000000 
C6451000000COTISATIONS A L'URSSAF   MLG00000000812296000000000000000000 
C6453100000COTIS.RETRAITE (CADRES)  MLG00000000000000000000000000000000 
C6453200000COTIS.RETRAITE(SALARIES) MLG00000000230964000000000000340000 
C6453300000PREVOYANCE SALARIES      MLG00000000054279000000000000000000 
C6454000000COTIS. AUX ASSEDIC       MLG00000000170686000000000000000000 
C6454100000                         MLG00000000000000000000000000000000 
C6455500000CICE - crédit impot compeMLG00000000000000000000000000000000 
C6460000000COTIS.SOC.PERS.EXPLOITANTMLG00000000000000000000000000000000 
C6461000000ALLOCATIONS FAMILIALES   MLG00000000000000000000000000000000 
C6461500000R S I                    MLG00000006499800000000015071000000 
C6462000000ASSURANCE VIEILLESSE ORG.MLG00000000000000000000000000000000 
C6463000000ASSURANCES MALADIE PERSO.MLG00000000000000000000000000000000 
C6467000000CONTRAT RETRAITE         MLG00000000000000000000000000000000 
C6470000000MEDECINE DU TRAVAIL      MLG00000000018200000000000091000000 
C6480000000AUTRES CHARGES DE PERS.  MLG00000000000000000000000000000000 
C6511000000REDEVANCES               MLG00000000245040000000000805000000 
C6540000000PERTES S/CREANCES IRRE.  MLG00000000000000000000000000000000 
C6580000000CHARGES DIV.GEST.COURANTEMLG00000000000003000000000000000000 
C6611600000INTERETS S/EMPRUNT SYGMA MLG00000000000000000000000000000000 
C6615000000INTERETS COMPTES COURANTSMLG00000000000000000000000000000000 
C6616000000AGIOS BANCAIRES          MLG00000000000000000000000000000000 
C6670000000CHARGES S/CESS.VAL.PLACEMMLG00000000000000000000000000000000 
C6680000000AUTRES CHARGES FINANC.   MLG00000000000000000000000000000000 
C6681000000ECART EURO               MLG00000000000000000000000000000000 
C6712000000PENALITES ET AMENDES     MLG00000000000000000000000000000000 
C6714000000CREANCES DEV.IRRE.DS EXERMLG00000000000000000000000000000000 
C6717000000RAPPELS D'IMPOTS NON IS. MLG00000000000000000000000000000000 
C6718000000AUTRES CHAR.EXCEP.GESTIONMLG00000000000000000000000000000000 
C6720000000CHARGES DIV.COUR.S/EX.ANTMLG00000000000000000000000000000000 
C6750000000VAL.NET.COMPT.ELEM.CEDES MLG00000000000000000000000000000000 
C6788000000CHARGES EXCEP.DIVERSES   MLG00000000000000000000000000000000 
C6811100000DOTAT AMORT IMMOB INCORP MLG00000000000000000000000000000000 
C6811200000DOT.AMORT.IMMO.CORP.     MLG00000000248301000000000000000000 
C6812000000DOT.AMORT.CHARGE.EX.A REPMLG00000000000000000000000000000000 
C6815000000DOT.PROV.CHAR.EX.(CONG.PAMLG00000000000000000000000000000000 
C6817300000DOT.PROV.STOCKS &EN-COURSMLG00000000000000000000000000000000 
C6817400000DOT.PROB.DEPRE.CREANCES  MLG00000000000000000000000000000000 
C6871100000CREE PAR CEGID           MLG00000000000000000000000000000000 
C6871200000CREE PAR CEGID           MLG00000000000000000000000000000000 
C6872500000DOT.AMORT.DEROGATOIRES   MLG00000000000000000000000000000000 
C6875000000DOT.PROV.RISQ.& CHAR.EXCPMLG00000000000000000000000000000000 
C6876000000DOT.PROV.DEPREC.EXCEPT.  MLG00000000000000000000000000000000 
C6950000000IMPOTS S/LES BENEFICES   MLG00000000000000000000000000000000 
C6970000000IMP.FORFAIT.ANNUELLE.SOC.MLG00000000000000000000000000000000 
C7010010000VENTE PRODUITS FINIS TVA1MLG00000000000000000000000000000000 
C7010020000VENTE PRODUITS FINIS TVA2MLG00000000000000000000000000000000 
C7020000000VENTES PROD.INTERMEDIAIREMLG00000000000000000000000000000000 
C7050000000ETUDES                   MLG00000000000000000000000000000000 
C7060010000TRAVAUX MAIN-OEUVRE TVA1 MLG00000000000000000000000000000000 
C7060020000TRAVAUX MAIN-OEUVRE TVA2 MLG00000000000000000000000000000000 
C7061000000RECETTES TABLETTERIES    MLG00000000000000000000000000000000 
C7062000000RECETTES BAR             MLG00000000000000000000000000000000 
C7062100000SERVICES SUR BAR         MLG00000000000000000000000000000000 
C7063000000RECETTES TELEPHONE       MLG00000000000000000000000000000000 
C7063610000RECETTES MAGHREB         MLG00000000000000000000000000000000 
C7064000000RECETTES TELECARTES      MLG00000000000000000000000000000000 
C7064200000RECETTES E RECHARGES     MLG00000000000000000000000000000000 
C7064500000RECETTES MOBICARTES      MLG00000000000000000000000000000000 
C7064550000RECETTE DELTA MULTI      MLG00000000000000000000000000000000 
C7064560000RECETTES MAXIMINUTE 100  MLG00000000000000000000000000000000 
C7064600000RECETTES CARTES KOSMOS   MLG00000000000000000000000000000000 
C7064650000RECETTES TICKET UNIV 100 MLG00000000000000000000000000000000 
C7064700000RECETTES CARTES CHAPEL - MLG00000000000000000000000000000000 
C7064750000RECETTES CARTES SFR      MLG00000000000000000000000000000000 
C7064760000RECETTES CARTES KOSMOS   MLG00000000000000000000000000000000 
C7065000000RECETTES CARTES CALLPOINTMLG00000000000000000000000000000000 
C7065500000RECETTES CARTES TELEPHONEMLG00000000000000000000000000000000 
C7070010000VENTE MARCHANDISES TVA 1 MLG00000000000000000000000000000000 
C7070020000VENTE MARCHANDISES TVA 2 MLG00000000000000000000000000000000 
C7070800000RETROCES.A PRIX COUTANT  MLG00000000000000000000000000000000 
C7071000000RECETTES TABLETTERIE     MLG00000000000000000000007974500000 
C7071120000RECETTES BAR             MLG00000002145373000000159225900000 
C7071200000RECETTES  BAR            MLG00000000000000000000000000000000 
C7071400000RECETTES TELECARTES      MLG00000000000000000000000000000000 
C7071420000RECETTES E RECHARGES     MLG00000000000000000000000000000000 
C7071450000RECETTES MOBICARTES      MLG00000000000000000000000000000000 
C7071470000RECETTES CARTES CHAPEL-BOMLG00000000000000000000000000000000 
C7071475000RECETTES  SFR            MLG00000000000000000000000000000000 
C7071476000CARTES  KOSMOS           MLG00000000000000000000000000000000 
C7071480000RECETTES CARTES TELEPHONEMLG00000000401618000000052827730000 
C7081050000COMMISSION SEITA         MLG00000000000000000000000000000000 
C7081090000COMMISSIONS JEUX         MLG00000000000000000000000000000000 
C7081100000COMMISSIONS SEITA        MLG00000000000000000000104100940000 
C7081120000COMMISSIONS RATP         MLG00000000000000000000001626950000 
C7081150000COMMISSION UNITED STARS  MLG00000000000000000000000000000000 
C7081200000COMMISSIONS RATP         MLG00000000000000000000000000000000 
C7081300000COMMISSIONS TIMBRES PTT  MLG00000000000000000000000466290000 
C7081400000COMMISSIONS PMU          MLG00000000188947000000027773500000 
C7081500000COMMISSIONS LOTERIE      MLG00000000000000000000022767340000 
C7081600000COMMISSIONS TIMBRES FISCAMLG00000000000000000000000000000000 
C7081700000COMMISSIONS LOTO NATIONALMLG00000000000000000000028428300000 
C7081800000COMMISSIONS VIGNETTES    MLG00000000000000000000000000000000 
C7081900000COMMISSIONS GREATLAND    MLG00000000000000000000000000000000 
C7081950000COMMISSIONS SEITA CARTES MLG00000000000000000000001279020000 
C7082000000COMMISSIONS DELTA-MULTIM.MLG00000000000000000000000000000000 
C7083200000COMMISSION TELECARTES    MLG00000000000000000000000000000000 
C7083220000Commissions Cartes TelephMLG00000000000000000000000000000000 
C7085010000PORT TVA 1               MLG00000000000000000000000000000000 
C7085020000PORT TVA 2               MLG00000000000000000000000000000000 
C7088000000AUTRES PROD.ACTI.ANNEXES MLG00000000000000000000000000000000 
C7090000000R.R.R. ACCORDES          MLG00000000000000000000000000000000 
C7133000000VARIAT.STOCK TRAVAUX     MLG00000000000000000000000000000000 
C7135000000VARIAT.STOCKS PROD.FINIS MLG00000000000000000000000000000000 
C7200000000PRODUCTION IMMOBILISEE   MLG00000000000000000000000000000000 
C7264000000Avantages en nature      MLG00000000000000000000000000000000 
C7400000000SUBVENTIONS D'EXPLOITAT. MLG00000000000000000000000000000000 
C7580000000PRODUITS DIV.GESTION COURMLG00000000000000000000000000000000 
C7650000000ESCOMPTES OBTENUS        MLG00000000000000000000000000000000 
C7680000000AUTRES PROD.FINANCIERS   MLG00000000000000000000000000000000 
C7681000000ECART EURO               MLG00000000000000000000000000000000 
C7681500000Intérets CAT Loto la FDJ MLG00000000024220000000000952450000 
C7714000000RENTREES S/CREAN.AMORTIESMLG00000000000000000000000000000000 
C7718000000AUTRES PROD.EXCEP.GESTIONMLG00000000000000000000000000000000 
C7720000000PROD.DIV.COUR.S/EX.ANTE. MLG00000000000000000000000434590000 
C7750000000PRODUITS CESS ELEM.CEDES MLG00000000000000000000000000000000 
C7770000000QUOTE-PART SUBVENT.INVESTMLG00000000000000000000000000000000 
C7788000000PRODUITS EXCEPT.DIVERS   MLG00000000000000000000000000000000 
C7811100000REP/AMORT.IMMOB.INCORP.  MLG00000000000000000000000000000000 
C7811200000REP/AMORT.IMMOB.CORPOR.  MLG00000000000000000000000000000000 
C7815000000REP/PROV. RISQ.& CH.EXPL.MLG00000000000000000000000000000000 
C7816100000REP/PROV.DEPREC.IMMO.INC.MLG00000000000000000000000000000000 
C7817300000REP/PROV.DEPREC.STOCKS   MLG00000000000000000000000000000000 
C7817400000REPRISE PROV.CREANCES D. MLG00000000000000000000000000000000 
C7865000000REP.PROV.RISQUE (CHANGE) MLG00000000000000000000000000000000 
C7866200000REP.PROV.IMMO.FINANCIERESMLG00000000000000000000000000000000 
C7871100000CREE PAR CEGID           MLG00000000000000000000000000000000 
C7871200000CREE PAR CEGID           MLG00000000000000000000000000000000 
C7872500000REP/PROV.REG.AMORT.DEROG MLG00000000000000000000000000000000 
C7875000000REP/PROV.RISQ.& CH.EXCEP.MLG00000000000000000000000000000000 
C7876000000REP/PROV.DEPRECIATION EXCMLG00000000000000000000000000000000 
C7910000000TRANSF.CHARGES D'EXPLOIT.MLG00000000000000000000000000000000 
C7911000000AVANTAGES NATURE         MLG00000000000000000000002225300000 
C7960000000TRANSF.CHARGES FINANC.   MLG00000000000000000000000000000000 
C7970000000TRANF.CHARGES EXCEPTION. MLG00000000000000000000000000000000 
C8900000000Compte de bilan          MLG00000000000000000000000000000000 
CCATTEN    Client Attente           MLA00000000000000000000000000000000 
M01
JaaÀ NOUVEAUX          0000000000 ONN
F001
E010000100000fidess  05                      00000000000000000000072769            00000000310511                     0000000000000310511  0000000000000         
E010000010000fact  Altadis  écart            00000000000000000000030153            00000000280611                     0000000000000280611  0000000000000         
E010000100000fidess 06                       00000000000000000000072769            00000000300611                     0000000000000300611  0000000000000         
E010003000000ratp                            00000000000000000000271421            00000000300611                     0000000000000300611  0000000000000         
E010000000000Salaire de 07/2011              00000000000000000000000361            00000000310711                     0000000000000310711  0000000000000         
E010000000000Salaire de 07/2011              00000000003610000000000000            00000000310711                     0000000000000310711  0000000000000         
E010000010000regul  altadis                  00000000301530000000000000            00000000150711                     0000000000000150711  0000000000000         
E010000100000FIDESS  06/2011     9553        00000000727690000000000000            00000000280711                     0000000000000280711  0000000000000         
E010003000000RATP BILLETS        9544        00000002714210000000000000            00000000070711                     0000000000000070711  0000000000000         
E010000000000Salaire de 08/2011              00000000000000000000001493            00000000310811                     0000000000000310811  0000000000000         
E010000000000Salaire de 08/2011              00000000014930000000000000            00000000310811                     0000000000000310811  0000000000000         
E010000000000Salaire de 09/2011              00000000000000000000001612            00000000300911                     0000000000000300911  0000000000000         
E010000000000Salaire de 09/2011              00000000016120000000000000            00000000300911                     0000000000000300911  0000000000000         
E010000000000Salaire de 10/2011              00000000000000000000001850            00000000311011                     0000000000000311011  0000000000000         
E010000000000Salaire de 10/2011              00000000018500000000000000            00000000311011                     0000000000000311011  0000000000000         
E010000000000Salaire de 11/2011              00000000000000000000001654            00000000301111                     0000000000000301111  0000000000000         
E010000000000Salaire de 11/2011              00000000016540000000000000            00000000301111                     0000000000000301111  0000000000000         
E010000000000Salaire de 12/2011              00000000000000000000001824            00000000311211                     0000000000000311211  0000000000000         
E010000000000Salaire de 12/2011              00000000018240000000000000            00000000311211                     0000000000000311211  0000000000000         
E010000000000Salaire de 01/2012              00000000000000000000001730            00000000310112                     0000000000000310112  0000000000000         
E010000000000Salaire de 01/2012              00000000017300000000000000            00000000310112                     0000000000000310112  0000000000000         
E010000000000Salaire de 02/2012              00000000000000000000001733            00000000290212                     0000000000000290212  0000000000000         
E010000000000Salaire de 02/2012              00000000017330000000000000            00000000290212                     0000000000000290212  0000000000000         
E010000000000Salaire de 03/2012              00000000000000000000001740            00000000310312                     0000000000000310312  0000000000000         
E010000000000Salaire de 03/2012              00000000017400000000000000            00000000310312                     0000000000000310312  0000000000000         
E010000000000Salaire de 04/2012              00000000000000000000001742            00000000300412                     0000000000000300412  0000000000000         
E010000000000Salaire de 04/2012              00000000017420000000000000            00000000300412                     0000000000000300412  0000000000000         
E010MORIN    CARRELEUR           8949        00000000500000000000000000            00000000170412                     0000000000000170412  0000000000000         
E010MORIN    BORREGO CARRELEUR at8976        00000001500000000000000000            00000000180512                     0000000000000180512  0000000000000         
E010000010000CARTES                          00000000000000000000254303            00000000040612                     0000000000000040612  0000000000000         
E010000010000ALTADIS                         00000000000000000005459766            00000000150612                     0000000000000150612  0000000000000         
E010000100000FIDESS   06                     00000000000000000000072769            00000000300612                     0000000000000300612  0000000000000         
E010MORIN    BORREGO             0699        00000000000000000000050000            00000000110612                     0000000000000110612  0000000000000         
E010MORIN    BORREGO             0699        00000000000000000000150000            00000000110612                     0000000000000110612  0000000000000         
E010000000000Salaire de 07/2012              00000000000000000000001411            00000000310712                     0000000000000310712  0000000000000         
E010000000000Salaire de 07/2012              00000000014110000000000000            00000000310712                     0000000000000310712  0000000000000         
E010000010000SEITA TABAC         0725        00000054597660000000000000            00000000030712                     0000000000000030712  0000000000000         
E010000010000SEITA CARTES PARKING0725        00000002543030000000000000            00000000030712                     0000000000000030712  0000000000000         
E010000000000Salaire de 08/2012              00000000000000000000001716            00000000310812                     0000000000000310812  0000000000000         
E010000000000Salaire de 08/2012              00000000017160000000000000            00000000310812                     0000000000000310812  0000000000000         
E010000100000FIDESS              8798        00000000727690000000000000            00000000080812                     0000000000000080812  0000000000000         
E010000000000Salaire de 09/2012              00000000000000000000002215            00000000300912                     0000000000000300912  0000000000000         
E010000000000Salaire de 09/2012              00000000022150000000000000            00000000300912                     0000000000000300912  0000000000000         
E010000000000Salaire de 10/2012              00000000000000000000002290            00000000311012                     0000000000000311012  0000000000000         
E010000000000Salaire de 10/2012              00000000022900000000000000            00000000311012                     0000000000000311012  0000000000000         
E010000000000Salaire de 11/2012              00000000000000000000002311            00000000301112                     0000000000000301112  0000000000000         
E010000000000Salaire de 11/2012              00000000023110000000000000            00000000301112                     0000000000000301112  0000000000000         
E010000000000Salaire de 12/2012              00000000000000000000002311            00000000311212                     0000000000000311212  0000000000000         
E010000000000Salaire de 12/2012              00000000023110000000000000            00000000311212                     0000000000000311212  0000000000000         
E010000000000Salaire de 01/2013              00000000000000000000002311            00000000310113                     0000000000000310113  0000000000000         
E010000000000Salaire de 01/2013              00000000023110000000000000            00000000310113                     0000000000000310113  0000000000000         
E010000000000Salaire de 02/2013              00000000000000000000002311            00000000280213                     0000000000000280213  0000000000000         
E010000000000Salaire de 02/2013              00000000023110000000000000            00000000280213                     0000000000000280213  0000000000000         
E010000000000Salaire de 03/2013              00000000000000000000001932            00000000310313                     0000000000000310313  0000000000000         
E010000000000Salaire de 03/2013              00000000019320000000000000            00000000310313                     0000000000000310313  0000000000000         
E010000000000Salaire de 04/2013              00000000000000000000002202            00000000300413                     0000000000000300413  0000000000000         
E010000000000Salaire de 04/2013              00000000022020000000000000            00000000300413                     0000000000000300413  0000000000000         
E010000010000FACT ALATDIS                    00000000000000000005537761            00000000170613                     0000000000000170613  0000000000000         
E010000100000fidess  06/13                   00000000000000000000072769            00000000300613                     0000000000000300613  0000000000000         
E010000000000Salaire de 07/2013              00000000000000000000001260            00000000310713                     0000000000000310713  0000000000000         
E010000000000Salaire de 07/2013              00000000012600000000000000            00000000310713                     0000000000000310713  0000000000000         
E010000010000SEITA TABAC         PRL         00000055377610000000000000            00000000190713                     0000000000000190713  0000000000000         
E010000000000Salaire de 08/2013              00000000000000000000002190            00000000310813                     0000000000000310813  0000000000000         
E010000000000Salaire de 08/2013              00000000021900000000000000            00000000310813                     0000000000000310813  0000000000000         
E010000100000FIDESS              7464        00000000727690000000000000            00000000060813                     0000000000000060813  0000000000000         
E010000000000Salaire de 09/2013              00000000000000000000002281            00000000300913                     0000000000000300913  0000000000000         
E010000000000Salaire de 09/2013              00000000022810000000000000            00000000300913                     0000000000000300913  0000000000000         
E010000000000Salaire de 10/2013              00000000000000000000002304            00000000311013                     0000000000000311013  0000000000000         
E010000000000Salaire de 10/2013              00000000023040000000000000            00000000311013                     0000000000000311013  0000000000000         
E010000000000Salaire de 11/2013              00000000000000000000002304            00000000301113                     0000000000000301113  0000000000000         
E010000000000Salaire de 11/2013              00000000023040000000000000            00000000301113                     0000000000000301113  0000000000000         
E010000000000Salaire de 12/2013              00000000000000000000002345            00000000311213                     0000000000000311213  0000000000000         
E010000000000Salaire de 12/2013              00000000023450000000000000            00000000311213                     0000000000000311213  0000000000000         
E010000000000Salaire de 01/2014              00000000000000000000002316            00000000310114                     0000000000000310114  0000000000000         
E010000000000Salaire de 01/2014              00000000023160000000000000            00000000310114                     0000000000000310114  0000000000000         
E010000000000Salaire de 02/2014              00000000000000000000002271            00000000280214                     0000000000000280214  0000000000000         
E010000000000Salaire de 02/2014              00000000022710000000000000            00000000280214                     0000000000000280214  0000000000000         
E010000000000Salaire de 03/2014              00000000000000000000002295            00000000310314                     0000000000000310314  0000000000000         
E010000000000Salaire de 03/2014              00000000022950000000000000            00000000310314                     0000000000000310314  0000000000000         
E010000000000Salaire de 04/2014              00000000000000000000002205            00000000300414                     0000000000000300414  0000000000000         
E010000000000Salaire de 04/2014              00000000022050000000000000            00000000300414                     0000000000000300414  0000000000000         
E010000000000Salaire de 05/2014              00000000000000000000002280            00000000310514                     0000000000000310514  0000000000000         
E010000000000Salaire de 05/2014              00000000022800000000000000            00000000310514                     0000000000000310514  0000000000000         
E010000100000FIDESS  06/2014                 00000000000000000000069120            00000000310514                     0000000000000310514  0000000000000         
E010003000000GATTI PLATEAU+PIED F            00000000000000000000193805            00000000070514                     0000000000000070514  0000000000000         
E010003000000FONCIA REDACT ACTE R            00000000000000000000152280            00000000300514                     0000000000000300514  0000000000000         
E010000000000Salaire de 06/2014              00000000000000000000002316            00000000300614                     0000000000000300614  0000000000000         
E010000000000Salaire de 06/2014              00000000023160000000000000            00000000300614                     0000000000000300614  0000000000000         
E010000130000LOGISTA                         00000000000000000006651508            00000000190614                     0000000000000190614  0000000000000         
E010000130000LOGISTA                         00000003307080000000000000            00000000240614                     0000000000000240614  0000000000000         
E010003000000SOLDE HON AVOCAT/LOY            00000000000000000000120000            00000000260614                     0000000000000260614  0000000000000         
E010000000000Salaire de 07/2014              00000000000000000000000790            00000000310714                     0000000000000310714  0000000000000         
E010000000000Salaire de 07/2014              00000000007900000000000000            00000000310714                     0000000000000310714  0000000000000         
E010000130000SEITA TABAC         PRL         00000063208000000000000000            00000000230714                     0000000000000230714  0000000000000         
E010003000000acompte GATTI                   00000000775000000000000000            00000000010714                     0000000000000010714  0000000000000         
E010003000000MTRE RAYNALDY       4137        00000001200000000000000000            00000000020714                     0000000000000020714  0000000000000         
E010003000000FONCIA              4138        00000001522800000000000000            00000000210714                     0000000000000210714  0000000000000         
E010000000000Salaire de 08/2014              00000000000000000000002149            00000000310814                     0000000000000310814  0000000000000         
E010000000000Salaire de 08/2014              00000000021490000000000000            00000000310814                     0000000000000310814  0000000000000         
E010000100000FIDESS.             8323        00000000691200000000000000            00000000270814                     0000000000000270814  0000000000000         
E010003000000GATTI               4159        00000001163050000000000000            00000000080814                     0000000000000080814  0000000000000         
E010000000000Salaire de 09/2014              00000000000000000000002293            00000000300914                     0000000000000300914  0000000000000         
E010000000000Salaire de 09/2014              00000000022930000000000000            00000000300914                     0000000000000300914  0000000000000         
E010000000000Salaire de 10/2014              00000000000000000000002316            00000000311014                     0000000000000311014  0000000000000         
E010000000000Salaire de 10/2014              00000000023160000000000000            00000000311014                     0000000000000311014  0000000000000         
E010000100000FIDESS 28 1011      8352        00000000727690000000000000            00000000061014                     0000000000000061014  0000000000000         
E010000000000Salaire de 11/2014              00000000000000000000002316            00000000301114                     0000000000000301114  0000000000000         
E010000000000Salaire de 11/2014              00000000023160000000000000            00000000301114                     0000000000000301114  0000000000000         
E010000000000Salaire de 12/2014              00000000000000000000002339            00000000311214                     0000000000000311214  0000000000000         
E010000000000Salaire de 12/2014              00000000023390000000000000            00000000311214                     0000000000000311214  0000000000000         
E010000000000Salaire de 01/2015              00000000000000000000002321            00000000310115                     0000000000000310115  0000000000000         
E010000000000Salaire de 01/2015              00000000023210000000000000            00000000310115                     0000000000000310115  0000000000000         
E010000000000Salaire de 02/2015              00000000000000000000002293            00000000280215                     0000000000000280215  0000000000000         
E010000000000Salaire de 02/2015              00000000022930000000000000            00000000280215                     0000000000000280215  0000000000000         
E010000000000Salaire de 03/2015              00000000000000000000002316            00000000310315                     0000000000000310315  0000000000000         
E010000000000Salaire de 03/2015              00000000023160000000000000            00000000310315                     0000000000000310315  0000000000000         
E010000000000Salaire de 04/2015              00000000000000000000002339            00000000300415                     0000000000000300415  0000000000000         
E010000000000Salaire de 04/2015              00000000023390000000000000            00000000300415                     0000000000000300415  0000000000000         
E010000000000Salaire de 05/2015              00000000000000000000002373            00000000310515                     0000000000000310515  0000000000000         
E010000000000Salaire de 05/2015              00000000023730000000000000            00000000310515                     0000000000000310515  0000000000000         
E010000000000Salaire de 06/2015              00000000000000000000003142            00000000300615                     0000000000000300615  0000000000000         
E010000000000Salaire de 06/2015              00000000031420000000000000            00000000300615                     0000000000000300615  0000000000000         
E010000010000LOGISTA TABAC                   00000000000000000007051407            00000000180615                     0000000000000180615  0000000000000         
E010000100000FIDESS   06/15                  00000000000000000000069120            00000000300615                     0000000000000300615  0000000000000         
E011080000000S.A.N.                          00000000000000000039825571            00000000010715                     0000000000000010715  0000000000000         
E011680200000S.A.N.                          00000000000000000000669400            00000000010715                     0000000000000010715  0000000000000         
E012070000000S.A.N.                          00000074700020000000000000            00000000010715                     0000000000000010715  0000000000000         
E012080000000S.A.N.                          00000000325480000000000000            00000000010715                     0000000000000010715  0000000000000         
E012154000000S.A.N.                          00000017136290000000000000            00000000010715                     0000000000000010715  0000000000000         
E012181000000S.A.N.                          00000081124890000000000000            00000000010715                     0000000000000010715  0000000000000         
E012183000000S.A.N.                          00000004488740000000000000            00000000010715                     0000000000000010715  0000000000000         
E012184000000S.A.N.                          00000016048060000000000000            00000000010715                     0000000000000010715  0000000000000         
E012750000000S.A.N.                          00000007536650000000000000            00000000010715                     0000000000000010715  0000000000000         
E012808000000S.A.N.                          00000000000000000000032548            00000000010715                     0000000000000010715  0000000000000         
E012815400000S.A.N.                          00000000000000000001447993            00000000010715                     0000000000000010715  0000000000000         
E012818100000S.A.N.                          00000000000000000007500450            00000000010715                     0000000000000010715  0000000000000         
E012818300000S.A.N.                          00000000000000000000433205            00000000010715                     0000000000000010715  0000000000000         
E012818400000S.A.N.                          00000000000000000001470029            00000000010715                     0000000000000010715  0000000000000         
E013701000000S.A.N.                          00000004056350000000000000            00000000010715                     0000000000000010715  0000000000000         
E013702000000S.A.N.                          00000004498880000000000000            00000000010715                     0000000000000010715  0000000000000         
E013703200000S.A.N.                          00000001060000000000000000            00000000010715                     0000000000000010715  0000000000000         
E014081000000S.A.N.                          00000000000000000000252000            00000000010715                     0000000000000010715  0000000000000         
E014091000000S.A.N.                          00000001328000000000000000            00000000010715                     0000000000000010715  0000000000000         
E014210000000S.A.N.                          00000000000000000000167807            00000000010715                     0000000000000010715  0000000000000         
E014282000000S.A.N.                          00000000000000000000259000            00000000010715                     0000000000000010715  0000000000000         
E014310000000S.A.N.                          00000000000000000000526300            00000000010715                     0000000000000010715  0000000000000         
E014372000000S.A.N.                        A 00000000000000000000112600            00000000010715                     0000000000000010715B 0000000000000         
E014378000000S.A.N.                          00000000000000000000028400            00000000010715                     0000000000000010715  0000000000000         
E014382000000S.A.N.                          00000000000000000000090600            00000000010715                     0000000000000010715  0000000000000         
E014455100000S.A.N.                          00000000000000000001348200            00000000010715                     0000000000000010715  0000000000000         
E014456600000S.A.N.                          00000000115810000000000000            00000000010715                     0000000000000010715  0000000000000         
E014458600000S.A.N.                          00000000420000000000000000            00000000010715                     0000000000000010715  0000000000000         
E014486000000S.A.N.                          00000000000000000000075400            00000000010715                     0000000000000010715  0000000000000         
E014670100000S.A.N.                          00000131955590000000000000            00000000010715                     0000000000000010715  0000000000000         
E014670200000S.A.N.                          00000002206650000000000000            00000000010715                     0000000000000010715  0000000000000         
E014670300000S.A.N.                          00000000652800000000000000            00000000010715                     0000000000000010715  0000000000000         
E014670500000S.A.N.                          00000008950000000000000000            00000000010715                     0000000000000010715  0000000000000         
E014687000000S.A.N.                          00000002186820000000000000            00000000010715                     0000000000000010715  0000000000000         
E014860000000S.A.N.                          00000009062000000000000000            00000000010715                     0000000000000010715  0000000000000         
E015120020000S.A.N.                          00000198837060000000000000            00000000010715                     0000000000000010715  0000000000000         
E015120100000S.A.N.                          00000063076790000000000000            00000000010715                     0000000000000010715  0000000000000         
E015121050000S.A.N.                          00000102484700000000000000            00000000010715                     0000000000000010715  0000000000000         
E015300000000S.A.N.                          00000011990810000000000000            00000000010715                     0000000000000010715  0000000000000         
E011200000000S.A.N.                          00000000000000000013064209            00000000010715                     0000000000000010715  0000000000000         
M02
M03
M04
M05
M06
M07
M08
M09
M10
M11
M12
***FIN***
